:060000000A128A11142906
:10000800F000030EF1000B1810200B191820710EC8
:100018008300F00E700E090003138312061D850A73
:10002800861F85030B100800FC3081000B11880126
:1000380021183428A1192828A1182C28211930287A
:1000480024088700081438282508870088143828C9
:100058002B088700081538282A08870088153828AB
:10006800290887000816382821080F39A10A08002E
:100200008A010A140F3982073F3406345B344F34B5
:1002100066346D347D3407347F346F3477347C3406
:1002200039345E347934713474216021672151216D
:100230005A210508A000212128210508AC002F2102
:10024000192920080F39A200200E0F39A300080039
:1002500022080021A40023080021A5000800A8010D
:10026000A701A6016430AC020318A80A03183329B9
:10027000AC070A30AC020318A70A03183A29AC07E6
:100280002C08A60044210800AB01AA01A9012808F6
:100290000021AB0027080021AA0026080021A900A0
:1002A0000800031383161615961703138312060806
:1002B0000B1008008B178B150B108B160B110800F9
:1002C000031383160F178F160F120F140800031352
:1002D00083168112811101158114011403138312F5
:1002E000FC3081000B110800031783168801890177
:1002F000031383168501870188010615861781136C
:100300001515951703138312850187018801AC0128
:020310000800E3
:04400E00C430FF3F7C
:00000001FF
